:100000000000012095070000050800000708000017
:10001000090800000B0800000D08000000000000A7
:100020000000000000000000000000000F080000B9
:10003000110800000000000013080000150800006F
:100040001708000017080000170800001708000034
:100050001708000017080000170800001708000024
:100060001708000017080000170800001708000014
:100070001708000017080000170800001708000004
:1000800017080000170800001708000017080000F4
:1000900017080000170800001708000017080000E4
:1000A00017080000170800001708000017080000D4
:1000B0001708000017080000000000000000000002
:1000C00017080000170800001708000017080000B4
:1000D00017080000170800001708000000000000C3
:1000E0000000000000000000000000000000000010
:1000F0000000000000000000000000000000000000
:1001000000000000000000000000000000000000EF
:1001100000000000000000000000000000000000DF
:1001200000000000000000000000000000000000CF
:1001300000000000000000000000000000000000BF
:1001400000000000000000000000000000000000AF
:10015000000000000000000000000000000000009F
:10016000000000000000000000000000000000008F
:10017000000000000000000000000000000000007F
:10018000000000000000000000000000000000006F
:10019000000000000000000000000000000000005F
:1001A000000000000000000000000000000000004F
:1001B000000000000000000000000000000000003F
:1001C000000000000000000000000000000000002F
:1001D000000000000000000000000000000000001F
:1001E000000000000000000000000000000000000F
:1001F00000000000000000000000000000000000FF
:08020000900000000100000065
:100208000348044B834202D0034B03B1184770479D
:100218000400002004000020000000000548064BF0
:100228001B1AD90F01EBA301491002D0034B03B1EC
:100238001847704704000020040000200000000058
:1002480010B5064C237843B9FFF7DAFF044B13B116
:100258000448AFF300800123237010BD0400002080
:1002680000000000AC0A000008B5044B1BB10449AB
:100278000448AFF30080BDE80840CFE70000000065
:1002880008000020AC0A0000A3F5803A704700BFC0
:10029800154B002B08BF114B9D46FFF7F5FF0021BA
:1002A8008B460F461148124A121A00F0B1FA0C4B4D
:1002B800002B00D098470B4B002B00D0984700200C
:1002C800002104000D000B4800F02AFB00F0F2FAB0
:1002D8002000290000F010F800F014FB00000800CE
:1002E80000000000000000000000012004000020C1
:1002F800F00200203509000008B500F007F800F00A
:1003080016F800F023F800F039F8FEE70D230BE0AB
:1003180001229A404FF0A041C1F81C2503F5E07274
:100328000C2041F822000133102BF1DD7047112217
:1003380008E0012393404FF0A041C1F81835C1F8F7
:100348000C350132142AF4DD70470000094B0A4AC3
:10035800C3F8102501220AE002F110031B0203F181
:10036800031302F5A270034941F820300132042A30
:10037800F2DD704700600040010D0100002305E038
:1003880001229A400C49C1F804250133042BF7DDFA
:1003980000230EE0084903F1A200084A41F8302082
:1003A80001339A0002F1804202F5C04201EBC0011C
:1003B8004A60032BEEDD704700F001400061004009
:1003C8004FF08053D3F83031B3F1FF3F03D0062B01
:1003D80006D0002070474FF0704393F8E03FF6E7EF
:1003E800012070474FF0704393F8E02FD3F8E83FAF
:1003F800C3F30313062A01D000207047033B002BE8
:1004080004D8DFE803F0010001207047002070479E
:100418004FF08053D3F83031B3F1FF3F03D0062BB0
:1004280006D0002070474FF0704393F8E03FF6E79E
:10043800012070474FF0704393F8E02FD3F8E83F5E
:10044800C3F30313062A01D000207047033B002B97
:1004580004D8DFE803F0010001207047002070474E
:100468004FF08053D3F83031B3F1FF3F03D0062B60
:1004780006D0002070474FF0704393F8E03FF6E74E
:10048800012070474FF0704393F8E02FD3F8E83F0E
:10049800C3F30313062A01D000207047033B002B47
:1004A80004D8DFE803F001000120704700207047FE
:1004B8004FF0704393F8E02FD3F8E83FC3F30313EA
:1004C800062A01D000207047033B002B04D8DFE840
:1004D80003F0010001207047002070474FF080535F
:1004E800D3F83031B3F1FF3F07D04FF08052D2F844
:1004F8003421062B0AD0002070474FF0704292F842
:10050800E03FD2F8E82FC2F30312F2E7033A012AD8
:1005180004D8DFE802F0010100207047012070478D
:100528004FF08053D3F83031B3F1FF3F03D0062B9F
:1005380006D0002070474FF0704393F8E03FF6E78D
:10054800012070474FF08053D3F83031B3F1FF3FAB
:1005580003D0062B06D0002070474FF0704393F865
:10056800E03FF6E7012070474FF08053D3F8302181
:10057800D3F83431062A01D000207047052B03D860
:10058800032B03D3002070470120704701207047D8
:100598004FF08053D3F83021D3F83431062A01D0F4
:1005A80000207047062B03D8032B03D30020704785
:1005B800012070470120704708B5FFF7E9FF38B1FF
:1005C8004FF01023D3F808224FF08043C3F8582582
:1005D80008BD0000014B024A1A6070470000002065
:1005E8000090D00308B5FFF7EBFE40B14FF0805301
:1005F800D3F82433C3F304235D4AC2F84035FFF728
:10060800F1FE10B15B4B5C4A5A67FFF701FF48B136
:100618004FF08053D3F84432C3F342334FF0804253
:10062800C2F83C35FFF706FF30B1544AD2F8FC3027
:1006380023F08073C2F8FC30FFF712FF40B14FF08F
:1006480080430022C3F80C21C3F81021C3F83825D1
:10065800FFF718FF20B14FF080430322C3F8A0250D
:10066800FFF726FF60B1464B0522C3F8102601228A
:10067800C3F888260022C3F818263F22C3F8142698
:10068800FFF72CFF002846D04FF08052D2F8041410
:100698003C4BC3F82015D2F80814C3F82415D2F837
:1006A8000C14C3F82815D2F81014C3F82C15D2F876
:1006B8001414C3F83015D2F81814C3F83415D2F846
:1006C8001C14C3F84015D2F82014C3F84415D2F806
:1006D8002414C3F84815D2F82814C3F84C15D2F8D6
:1006E8002C14C3F85015D2F83014C3F85415D2F8A6
:1006F8003414C3F86015D2F83814C3F86415D2F866
:100708003C14C3F86815D2F84014C3F86C15D2F835
:100718004424C3F87025FFF703FF48B14FF0805316
:10072800D3F8583203F04F034FF08042C2F8E43E4A
:10073800FFF708FF60B14FF08043D3F8003413F09F
:10074800010F05D04FF080436FF00102C3F8002479
:10075800FFF70AFF30B10C4AD2F83C3743F4806304
:10076800C2F83C37FFF728FFFFF734FF08BD00BF8A
:100778000030014000C007400DF0ADBA00ED00E0C8
:100788000050004000C00040001000400F49104ACF
:10079800104B00F010F81049104A114B00F00BF8FC
:1007A8001049114A114B00F006F81149114A124B31
:1007B80000F001F806E0521A03DD043A9858885010
:1007C800FBDC7047FFF70EFFFFF762FD000000201B
:1007D80004000020F80A00000400002004000020A3
:1007E800FC0A00000400002004000020FC0A0000AD
:1007F8000400002004000020FC0A0000FEE7FEE7D9
:10080800FEE7FEE7FEE7FEE7FEE7FEE7FEE7FEE7B8
:10081800830730B547D0541E002A3ED0CAB20346DB
:1008280001E0013C39D303F8012B9D07F9D1032CD2
:100838002CD9CDB205EB05250F2C05EB054535D98F
:10084800A4F1100222F00F0C03F1100EE6444FEA57
:10085800121C1A46C2E90055C2E902551032724507
:10086800F8D10CF1010214F00C0F03EB021204F0A2
:100878000F0C13D0ACF1040323F003030433134427
:1008880042F8045B9342FBD10CF003042CB1C9B2CB
:100898001C4403F8011BA342FBD130BD6446134638
:1008A800002CF4D1F9E703461446C0E71A46A446DB
:1008B800E0E700BF70B50F4B0F4DAB42A3EB050649
:1008C80007D0B610002455F8043B01349847A642D7
:1008D800F9D800F0D5F8094D094B5E1BAB424FEA39
:1008E800A60606D0002455F8043B01349847A642D2
:1008F800F9D870BD940A0000940A0000940A000018
:100908009C0A000008B50021044600F023F8034BB8
:100918001B6803B19847204600F0B0F8EC020020AD
:10092800002301461A46184600F076B838B5074D38
:10093800074C2C1BA41005D0013C55F8043D9847E2
:10094800002CF9D1BDE8384000F0A4B8AC0A00008A
:10095800A80A00002DE9F04F294F83B03E680190A6
:100968005EB38B464FF000094FF001087468651EAE
:1009780023D4013406EB8404BBF1000F20D1736843
:100988002268013BAB420CBF7560C4F800907AB195
:10099800D6F88811D6F804A008FA05FC1CEA010F5D
:1009A8001AD1904771683A68514522D1B24220D194
:1009B800013D6B1CA4F10404DED103B0BDE8F08F47
:1009C800D4F800315B45DAD0013D6A1CA4F1040477
:1009D800F6D103B0BDE8F08FD6F88C31D4F880108A
:1009E8001CEA030F09D10198904771683A6851458C
:1009F800DCD0002AE1D01646B8E708469047D1E790
:100A080020000020024B13B10248FFF789BF70474E
:100A1800000000003509000070B4164D2C681CB3A6
:100A280065681F2D23DC38B9AB1C0135656044F8B7
:100A38002310002070BC704704EB850C0228CCF80A
:100A48008820D4F888614FF0010202FA05F246EADC
:100A58000206C4F88861CCF80831E5D1D4F88C31A5
:100A68001343C4F88C31DFE7034C2C60D8E74FF010
:100A7800FF30DFE72000002024000020FEE700BF51
:100A8800F8B500BFF8BC08BC9E4670470D0A0000C8
:100A980071020000F8B500BFF8BC08BC9E4670475C
:080AA8004902000000000000FB
:100AB000F80A00000000002001000000FC0A00000D
:100AC0000400002000000000FC0A000004000020D8
:100AD00000000000FC0A00000400002000000000EC
:100AE00004000020BB000000F00200200000000015
:080AF000F002002000000000EC
:040AF8000090D00397
:04000003000007955D
:00000001FF
